{
  "_format": "hh3-artifact-1",
  "contractName": "BlizPredictionMarket",
  "sourceName": "contracts/BlizPredictionMarket.sol",
  "abi": [
    {
      "inputs": [
        {
          "internalType": "address",
          "name": "_usdc",
          "type": "address"
        }
      ],
      "stateMutability": "nonpayable",
      "type": "constructor"
    },
    {
      "anonymous": false,
      "inputs": [
        {
          "indexed": true,
          "internalType": "address",
          "name": "trader",
          "type": "address"
        },
        {
          "indexed": false,
          "internalType": "string",
          "name": "symbol",
          "type": "string"
        },
        {
          "indexed": false,
          "internalType": "bool",
          "name": "isUp",
          "type": "bool"
        },
        {
          "indexed": false,
          "internalType": "uint256",
          "name": "amount",
          "type": "uint256"
        }
      ],
      "name": "PredictionPlaced",
      "type": "event"
    },
    {
      "inputs": [
        {
          "internalType": "uint256",
          "name": "index",
          "type": "uint256"
        }
      ],
      "name": "getTrade",
      "outputs": [
        {
          "internalType": "address",
          "name": "",
          "type": "address"
        },
        {
          "internalType": "string",
          "name": "",
          "type": "string"
        },
        {
          "internalType": "bool",
          "name": "",
          "type": "bool"
        },
        {
          "internalType": "uint256",
          "name": "",
          "type": "uint256"
        },
        {
          "internalType": "uint256",
          "name": "",
          "type": "uint256"
        }
      ],
      "stateMutability": "view",
      "type": "function"
    },
    {
      "inputs": [],
      "name": "getTradesCount",
      "outputs": [
        {
          "internalType": "uint256",
          "name": "",
          "type": "uint256"
        }
      ],
      "stateMutability": "view",
      "type": "function"
    },
    {
      "inputs": [
        {
          "internalType": "string",
          "name": "symbol",
          "type": "string"
        },
        {
          "internalType": "bool",
          "name": "isUp",
          "type": "bool"
        },
        {
          "internalType": "uint256",
          "name": "amount",
          "type": "uint256"
        }
      ],
      "name": "placePrediction",
      "outputs": [],
      "stateMutability": "nonpayable",
      "type": "function"
    },
    {
      "inputs": [],
      "name": "totalVolume",
      "outputs": [
        {
          "internalType": "uint256",
          "name": "",
          "type": "uint256"
        }
      ],
      "stateMutability": "view",
      "type": "function"
    },
    {
      "inputs": [
        {
          "internalType": "uint256",
          "name": "",
          "type": "uint256"
        }
      ],
      "name": "trades",
      "outputs": [
        {
          "internalType": "address",
          "name": "trader",
          "type": "address"
        },
        {
          "internalType": "string",
          "name": "symbol",
          "type": "string"
        },
        {
          "internalType": "bool",
          "name": "isUp",
          "type": "bool"
        },
        {
          "internalType": "uint256",
          "name": "amount",
          "type": "uint256"
        },
        {
          "internalType": "uint256",
          "name": "timestamp",
          "type": "uint256"
        }
      ],
      "stateMutability": "view",
      "type": "function"
    },
    {
      "inputs": [],
      "name": "usdc",
      "outputs": [
        {
          "internalType": "contract IERC20",
          "name": "",
          "type": "address"
        }
      ],
      "stateMutability": "view",
      "type": "function"
    },
    {
      "inputs": [
        {
          "internalType": "address",
          "name": "",
          "type": "address"
        }
      ],
      "name": "userVolume",
      "outputs": [
        {
          "internalType": "uint256",
          "name": "",
          "type": "uint256"
        }
      ],
      "stateMutability": "view",
      "type": "function"
    }
  ],
  "bytecode": "0x608060405234801561000f575f5ffd5b506040516110c13803806110c1833981810160405281019061003191906100d4565b805f5f6101000a81548173ffffffffffffffffffffffffffffffffffffffff021916908373ffffffffffffffffffffffffffffffffffffffff160217905550506100ff565b5f5ffd5b5f73ffffffffffffffffffffffffffffffffffffffff82169050919050565b5f6100a38261007a565b9050919050565b6100b381610099565b81146100bd575f5ffd5b50565b5f815190506100ce816100aa565b92915050565b5f602082840312156100e9576100e8610076565b5b5f6100f6848285016100c0565b91505092915050565b610fb58061010c5f395ff3fe608060405234801561000f575f5ffd5b506004361061007b575f3560e01c80633aaa18a4116100595780633aaa18a4146101035780633e413bee146101215780635f81a57c1461013f578063a6769ef81461015d5761007b565b80631e6c598e1461007f5780632db25e05146100b357806334c96ca0146100e7575b5f5ffd5b61009960048036038101906100949190610718565b61018d565b6040516100aa95949392919061081b565b60405180910390f35b6100cd60048036038101906100c89190610718565b61027f565b6040516100de95949392919061081b565b60405180910390f35b61010160048036038101906100fc91906109c9565b6103f1565b005b61010b610689565b6040516101189190610a35565b60405180910390f35b610129610695565b6040516101369190610aa9565b60405180910390f35b6101476106b9565b6040516101549190610a35565b60405180910390f35b61017760048036038101906101729190610aec565b6106bf565b6040516101849190610a35565b60405180910390f35b6001818154811061019c575f80fd5b905f5260205f2090600502015f91509050805f015f9054906101000a900473ffffffffffffffffffffffffffffffffffffffff16908060010180546101e090610b44565b80601f016020809104026020016040519081016040528092919081815260200182805461020c90610b44565b80156102575780601f1061022e57610100808354040283529160200191610257565b820191905f5260205f20905b81548152906001019060200180831161023a57829003601f168201915b505050505090806002015f9054906101000a900460ff16908060030154908060040154905085565b5f60605f5f5f5f6001878154811061029a57610299610b74565b5b905f5260205f2090600502016040518060a00160405290815f82015f9054906101000a900473ffffffffffffffffffffffffffffffffffffffff1673ffffffffffffffffffffffffffffffffffffffff1673ffffffffffffffffffffffffffffffffffffffff16815260200160018201805461031590610b44565b80601f016020809104026020016040519081016040528092919081815260200182805461034190610b44565b801561038c5780601f106103635761010080835404028352916020019161038c565b820191905f5260205f20905b81548152906001019060200180831161036f57829003601f168201915b50505050508152602001600282015f9054906101000a900460ff16151515158152602001600382015481526020016004820154815250509050805f01518160200151826040015183606001518460800151955095509550955095505091939590929450565b5f8111610433576040517f08c379a000000000000000000000000000000000000000000000000000000000815260040161042a90610beb565b60405180910390fd5b5f5f9054906101000a900473ffffffffffffffffffffffffffffffffffffffff1673ffffffffffffffffffffffffffffffffffffffff166323b872dd3330846040518463ffffffff1660e01b815260040161049093929190610c09565b6020604051808303815f875af11580156104ac573d5f5f3e3d5ffd5b505050506040513d601f19601f820116820180604052508101906104d09190610c52565b5060016040518060a001604052803373ffffffffffffffffffffffffffffffffffffffff168152602001858152602001841515815260200183815260200142815250908060018154018082558091505060019003905f5260205f2090600502015f909190919091505f820151815f015f6101000a81548173ffffffffffffffffffffffffffffffffffffffff021916908373ffffffffffffffffffffffffffffffffffffffff16021790555060208201518160010190816105919190610e14565b506040820151816002015f6101000a81548160ff021916908315150217905550606082015181600301556080820151816004015550508060025f8282546105d89190610f10565b925050819055508060035f3373ffffffffffffffffffffffffffffffffffffffff1673ffffffffffffffffffffffffffffffffffffffff1681526020019081526020015f205f82825461062b9190610f10565b925050819055503373ffffffffffffffffffffffffffffffffffffffff167f429dd7e2075662f0bdfc948b973b478c4a3ec9209210b05de19885f73b0f619e84848460405161067c93929190610f43565b60405180910390a2505050565b5f600180549050905090565b5f5f9054906101000a900473ffffffffffffffffffffffffffffffffffffffff1681565b60025481565b6003602052805f5260405f205f915090505481565b5f604051905090565b5f5ffd5b5f5ffd5b5f819050919050565b6106f7816106e5565b8114610701575f5ffd5b50565b5f81359050610712816106ee565b92915050565b5f6020828403121561072d5761072c6106dd565b5b5f61073a84828501610704565b91505092915050565b5f73ffffffffffffffffffffffffffffffffffffffff82169050919050565b5f61076c82610743565b9050919050565b61077c81610762565b82525050565b5f81519050919050565b5f82825260208201905092915050565b8281835e5f83830152505050565b5f601f19601f8301169050919050565b5f6107c482610782565b6107ce818561078c565b93506107de81856020860161079c565b6107e7816107aa565b840191505092915050565b5f8115159050919050565b610806816107f2565b82525050565b610815816106e5565b82525050565b5f60a08201905061082e5f830188610773565b818103602083015261084081876107ba565b905061084f60408301866107fd565b61085c606083018561080c565b610869608083018461080c565b9695505050505050565b5f5ffd5b5f5ffd5b7f4e487b71000000000000000000000000000000000000000000000000000000005f52604160045260245ffd5b6108b1826107aa565b810181811067ffffffffffffffff821117156108d0576108cf61087b565b5b80604052505050565b5f6108e26106d4565b90506108ee82826108a8565b919050565b5f67ffffffffffffffff82111561090d5761090c61087b565b5b610916826107aa565b9050602081019050919050565b828183375f83830152505050565b5f61094361093e846108f3565b6108d9565b90508281526020810184848401111561095f5761095e610877565b5b61096a848285610923565b509392505050565b5f82601f83011261098657610985610873565b5b8135610996848260208601610931565b91505092915050565b6109a8816107f2565b81146109b2575f5ffd5b50565b5f813590506109c38161099f565b92915050565b5f5f5f606084860312156109e0576109df6106dd565b5b5f84013567ffffffffffffffff8111156109fd576109fc6106e1565b5b610a0986828701610972565b9350506020610a1a868287016109b5565b9250506040610a2b86828701610704565b9150509250925092565b5f602082019050610a485f83018461080c565b92915050565b5f819050919050565b5f610a71610a6c610a6784610743565b610a4e565b610743565b9050919050565b5f610a8282610a57565b9050919050565b5f610a9382610a78565b9050919050565b610aa381610a89565b82525050565b5f602082019050610abc5f830184610a9a565b92915050565b610acb81610762565b8114610ad5575f5ffd5b50565b5f81359050610ae681610ac2565b92915050565b5f60208284031215610b0157610b006106dd565b5b5f610b0e84828501610ad8565b91505092915050565b7f4e487b71000000000000000000000000000000000000000000000000000000005f52602260045260245ffd5b5f6002820490506001821680610b5b57607f821691505b602082108103610b6e57610b6d610b17565b5b50919050565b7f4e487b71000000000000000000000000000000000000000000000000000000005f52603260045260245ffd5b7f496e76616c696420616d6f756e740000000000000000000000000000000000005f82015250565b5f610bd5600e8361078c565b9150610be082610ba1565b602082019050919050565b5f6020820190508181035f830152610c0281610bc9565b9050919050565b5f606082019050610c1c5f830186610773565b610c296020830185610773565b610c36604083018461080c565b949350505050565b5f81519050610c4c8161099f565b92915050565b5f60208284031215610c6757610c666106dd565b5b5f610c7484828501610c3e565b91505092915050565b5f819050815f5260205f209050919050565b5f6020601f8301049050919050565b5f82821b905092915050565b5f60088302610cd97fffffffffffffffffffffffffffffffffffffffffffffffffffffffffffffffff82610c9e565b610ce38683610c9e565b95508019841693508086168417925050509392505050565b5f610d15610d10610d0b846106e5565b610a4e565b6106e5565b9050919050565b5f819050919050565b610d2e83610cfb565b610d42610d3a82610d1c565b848454610caa565b825550505050565b5f5f905090565b610d59610d4a565b610d64818484610d25565b505050565b5b81811015610d8757610d7c5f82610d51565b600181019050610d6a565b5050565b601f821115610dcc57610d9d81610c7d565b610da684610c8f565b81016020851015610db5578190505b610dc9610dc185610c8f565b830182610d69565b50505b505050565b5f82821c905092915050565b5f610dec5f1984600802610dd1565b1980831691505092915050565b5f610e048383610ddd565b9150826002028217905092915050565b610e1d82610782565b67ffffffffffffffff811115610e3657610e3561087b565b5b610e408254610b44565b610e4b828285610d8b565b5f60209050601f831160018114610e7c575f8415610e6a578287015190505b610e748582610df9565b865550610edb565b601f198416610e8a86610c7d565b5f5b82811015610eb157848901518255600182019150602085019450602081019050610e8c565b86831015610ece5784890151610eca601f891682610ddd565b8355505b6001600288020188555050505b505050505050565b7f4e487b71000000000000000000000000000000000000000000000000000000005f52601160045260245ffd5b5f610f1a826106e5565b9150610f25836106e5565b9250828201905080821115610f3d57610f3c610ee3565b5b92915050565b5f6060820190508181035f830152610f5b81866107ba565b9050610f6a60208301856107fd565b610f77604083018461080c565b94935050505056fea2646970667358221220aa6fe24cccfe28091999c96e91067f33036d7ade57078baa5c53b69ec18a172d64736f6c634300081c0033",
  "linkReferences": {},
  "deployedLinkReferences": {},
  "immutableReferences": {},
  "inputSourceName": "project/contracts/BlizPredictionMarket.sol",
  "buildInfoId": "solc-0_8_28-e5beff92f3a2166882003c916a1258e22112ca78"
}