{
  "_format": "hh-sol-artifact-1",
  "contractName": "BlizPredictionMarket",
  "sourceName": "contracts/BlizPredictionMarket.sol",
  "abi": [
    {
      "inputs": [
        {
          "internalType": "address",
          "name": "_usdc",
          "type": "address"
        }
      ],
      "stateMutability": "nonpayable",
      "type": "constructor"
    },
    {
      "anonymous": false,
      "inputs": [
        {
          "indexed": true,
          "internalType": "address",
          "name": "trader",
          "type": "address"
        },
        {
          "indexed": false,
          "internalType": "string",
          "name": "symbol",
          "type": "string"
        },
        {
          "indexed": false,
          "internalType": "bool",
          "name": "isUp",
          "type": "bool"
        },
        {
          "indexed": false,
          "internalType": "uint256",
          "name": "amount",
          "type": "uint256"
        }
      ],
      "name": "PredictionPlaced",
      "type": "event"
    },
    {
      "inputs": [
        {
          "internalType": "uint256",
          "name": "index",
          "type": "uint256"
        }
      ],
      "name": "getTrade",
      "outputs": [
        {
          "internalType": "address",
          "name": "",
          "type": "address"
        },
        {
          "internalType": "string",
          "name": "",
          "type": "string"
        },
        {
          "internalType": "bool",
          "name": "",
          "type": "bool"
        },
        {
          "internalType": "uint256",
          "name": "",
          "type": "uint256"
        },
        {
          "internalType": "uint256",
          "name": "",
          "type": "uint256"
        }
      ],
      "stateMutability": "view",
      "type": "function"
    },
    {
      "inputs": [],
      "name": "getTradesCount",
      "outputs": [
        {
          "internalType": "uint256",
          "name": "",
          "type": "uint256"
        }
      ],
      "stateMutability": "view",
      "type": "function"
    },
    {
      "inputs": [
        {
          "internalType": "string",
          "name": "symbol",
          "type": "string"
        },
        {
          "internalType": "bool",
          "name": "isUp",
          "type": "bool"
        },
        {
          "internalType": "uint256",
          "name": "amount",
          "type": "uint256"
        }
      ],
      "name": "placePrediction",
      "outputs": [],
      "stateMutability": "nonpayable",
      "type": "function"
    },
    {
      "inputs": [],
      "name": "totalVolume",
      "outputs": [
        {
          "internalType": "uint256",
          "name": "",
          "type": "uint256"
        }
      ],
      "stateMutability": "view",
      "type": "function"
    },
    {
      "inputs": [
        {
          "internalType": "uint256",
          "name": "",
          "type": "uint256"
        }
      ],
      "name": "trades",
      "outputs": [
        {
          "internalType": "address",
          "name": "trader",
          "type": "address"
        },
        {
          "internalType": "string",
          "name": "symbol",
          "type": "string"
        },
        {
          "internalType": "bool",
          "name": "isUp",
          "type": "bool"
        },
        {
          "internalType": "uint256",
          "name": "amount",
          "type": "uint256"
        },
        {
          "internalType": "uint256",
          "name": "timestamp",
          "type": "uint256"
        }
      ],
      "stateMutability": "view",
      "type": "function"
    },
    {
      "inputs": [],
      "name": "usdc",
      "outputs": [
        {
          "internalType": "contract IERC20",
          "name": "",
          "type": "address"
        }
      ],
      "stateMutability": "view",
      "type": "function"
    },
    {
      "inputs": [
        {
          "internalType": "address",
          "name": "",
          "type": "address"
        }
      ],
      "name": "userVolume",
      "outputs": [
        {
          "internalType": "uint256",
          "name": "",
          "type": "uint256"
        }
      ],
      "stateMutability": "view",
      "type": "function"
    }
  ],
  "bytecode": "0x60806040523480156200001157600080fd5b5060405162001171380380620011718339818101604052810190620000379190620000e8565b806000806101000a81548173ffffffffffffffffffffffffffffffffffffffff021916908373ffffffffffffffffffffffffffffffffffffffff160217905550506200011a565b600080fd5b600073ffffffffffffffffffffffffffffffffffffffff82169050919050565b6000620000b08262000083565b9050919050565b620000c281620000a3565b8114620000ce57600080fd5b50565b600081519050620000e281620000b7565b92915050565b6000602082840312156200010157620001006200007e565b5b60006200011184828501620000d1565b91505092915050565b611047806200012a6000396000f3fe608060405234801561001057600080fd5b506004361061007d5760003560e01c80633aaa18a41161005b5780633aaa18a4146101065780633e413bee146101245780635f81a57c14610142578063a6769ef8146101605761007d565b80631e6c598e146100825780632db25e05146100b657806334c96ca0146100ea575b600080fd5b61009c60048036038101906100979190610748565b610190565b6040516100ad959493929190610870565b60405180910390f35b6100d060048036038101906100cb9190610748565b61028b565b6040516100e1959493929190610870565b60405180910390f35b61010460048036038101906100ff9190610a2b565b610408565b005b61010e6106af565b60405161011b9190610a9a565b60405180910390f35b61012c6106bc565b6040516101399190610b14565b60405180910390f35b61014a6106e0565b6040516101579190610a9a565b60405180910390f35b61017a60048036038101906101759190610b5b565b6106e6565b6040516101879190610a9a565b60405180910390f35b600181815481106101a057600080fd5b90600052602060002090600502016000915090508060000160009054906101000a900473ffffffffffffffffffffffffffffffffffffffff16908060010180546101e990610bb7565b80601f016020809104026020016040519081016040528092919081815260200182805461021590610bb7565b80156102625780601f1061023757610100808354040283529160200191610262565b820191906000526020600020905b81548152906001019060200180831161024557829003601f168201915b5050505050908060020160009054906101000a900460ff16908060030154908060040154905085565b60006060600080600080600187815481106102a9576102a8610be8565b5b90600052602060002090600502016040518060a00160405290816000820160009054906101000a900473ffffffffffffffffffffffffffffffffffffffff1673ffffffffffffffffffffffffffffffffffffffff1673ffffffffffffffffffffffffffffffffffffffff16815260200160018201805461032890610bb7565b80601f016020809104026020016040519081016040528092919081815260200182805461035490610bb7565b80156103a15780601f10610376576101008083540402835291602001916103a1565b820191906000526020600020905b81548152906001019060200180831161038457829003601f168201915b505050505081526020016002820160009054906101000a900460ff1615151515815260200160038201548152602001600482015481525050905080600001518160200151826040015183606001518460800151955095509550955095505091939590929450565b6000811161044b576040517f08c379a000000000000000000000000000000000000000000000000000000000815260040161044290610c63565b60405180910390fd5b60008054906101000a900473ffffffffffffffffffffffffffffffffffffffff1673ffffffffffffffffffffffffffffffffffffffff166323b872dd3330846040518463ffffffff1660e01b81526004016104a893929190610c83565b6020604051808303816000875af11580156104c7573d6000803e3d6000fd5b505050506040513d601f19601f820116820180604052508101906104eb9190610ccf565b5060016040518060a001604052803373ffffffffffffffffffffffffffffffffffffffff168152602001858152602001841515815260200183815260200142815250908060018154018082558091505060019003906000526020600020906005020160009091909190915060008201518160000160006101000a81548173ffffffffffffffffffffffffffffffffffffffff021916908373ffffffffffffffffffffffffffffffffffffffff16021790555060208201518160010190816105b29190610e9e565b5060408201518160020160006101000a81548160ff0219169083151502179055506060820151816003015560808201518160040155505080600260008282546105fb9190610f9f565b9250508190555080600360003373ffffffffffffffffffffffffffffffffffffffff1673ffffffffffffffffffffffffffffffffffffffff16815260200190815260200160002060008282546106519190610f9f565b925050819055503373ffffffffffffffffffffffffffffffffffffffff167f429dd7e2075662f0bdfc948b973b478c4a3ec9209210b05de19885f73b0f619e8484846040516106a293929190610fd3565b60405180910390a2505050565b6000600180549050905090565b60008054906101000a900473ffffffffffffffffffffffffffffffffffffffff1681565b60025481565b60036020528060005260406000206000915090505481565b6000604051905090565b600080fd5b600080fd5b6000819050919050565b61072581610712565b811461073057600080fd5b50565b6000813590506107428161071c565b92915050565b60006020828403121561075e5761075d610708565b5b600061076c84828501610733565b91505092915050565b600073ffffffffffffffffffffffffffffffffffffffff82169050919050565b60006107a082610775565b9050919050565b6107b081610795565b82525050565b600081519050919050565b600082825260208201905092915050565b60005b838110156107f05780820151818401526020810190506107d5565b60008484015250505050565b6000601f19601f8301169050919050565b6000610818826107b6565b61082281856107c1565b93506108328185602086016107d2565b61083b816107fc565b840191505092915050565b60008115159050919050565b61085b81610846565b82525050565b61086a81610712565b82525050565b600060a08201905061088560008301886107a7565b8181036020830152610897818761080d565b90506108a66040830186610852565b6108b36060830185610861565b6108c06080830184610861565b9695505050505050565b600080fd5b600080fd5b7f4e487b7100000000000000000000000000000000000000000000000000000000600052604160045260246000fd5b61090c826107fc565b810181811067ffffffffffffffff8211171561092b5761092a6108d4565b5b80604052505050565b600061093e6106fe565b905061094a8282610903565b919050565b600067ffffffffffffffff82111561096a576109696108d4565b5b610973826107fc565b9050602081019050919050565b82818337600083830152505050565b60006109a261099d8461094f565b610934565b9050828152602081018484840111156109be576109bd6108cf565b5b6109c9848285610980565b509392505050565b600082601f8301126109e6576109e56108ca565b5b81356109f684826020860161098f565b91505092915050565b610a0881610846565b8114610a1357600080fd5b50565b600081359050610a25816109ff565b92915050565b600080600060608486031215610a4457610a43610708565b5b600084013567ffffffffffffffff811115610a6257610a6161070d565b5b610a6e868287016109d1565b9350506020610a7f86828701610a16565b9250506040610a9086828701610733565b9150509250925092565b6000602082019050610aaf6000830184610861565b92915050565b6000819050919050565b6000610ada610ad5610ad084610775565b610ab5565b610775565b9050919050565b6000610aec82610abf565b9050919050565b6000610afe82610ae1565b9050919050565b610b0e81610af3565b82525050565b6000602082019050610b296000830184610b05565b92915050565b610b3881610795565b8114610b4357600080fd5b50565b600081359050610b5581610b2f565b92915050565b600060208284031215610b7157610b70610708565b5b6000610b7f84828501610b46565b91505092915050565b7f4e487b7100000000000000000000000000000000000000000000000000000000600052602260045260246000fd5b60006002820490506001821680610bcf57607f821691505b602082108103610be257610be1610b88565b5b50919050565b7f4e487b7100000000000000000000000000000000000000000000000000000000600052603260045260246000fd5b7f496e76616c696420616d6f756e74000000000000000000000000000000000000600082015250565b6000610c4d600e836107c1565b9150610c5882610c17565b602082019050919050565b60006020820190508181036000830152610c7c81610c40565b9050919050565b6000606082019050610c9860008301866107a7565b610ca560208301856107a7565b610cb26040830184610861565b949350505050565b600081519050610cc9816109ff565b92915050565b600060208284031215610ce557610ce4610708565b5b6000610cf384828501610cba565b91505092915050565b60008190508160005260206000209050919050565b60006020601f8301049050919050565b600082821b905092915050565b600060088302610d5e7fffffffffffffffffffffffffffffffffffffffffffffffffffffffffffffffff82610d21565b610d688683610d21565b95508019841693508086168417925050509392505050565b6000610d9b610d96610d9184610712565b610ab5565b610712565b9050919050565b6000819050919050565b610db583610d80565b610dc9610dc182610da2565b848454610d2e565b825550505050565b600090565b610dde610dd1565b610de9818484610dac565b505050565b5b81811015610e0d57610e02600082610dd6565b600181019050610def565b5050565b601f821115610e5257610e2381610cfc565b610e2c84610d11565b81016020851015610e3b578190505b610e4f610e4785610d11565b830182610dee565b50505b505050565b600082821c905092915050565b6000610e7560001984600802610e57565b1980831691505092915050565b6000610e8e8383610e64565b9150826002028217905092915050565b610ea7826107b6565b67ffffffffffffffff811115610ec057610ebf6108d4565b5b610eca8254610bb7565b610ed5828285610e11565b600060209050601f831160018114610f085760008415610ef6578287015190505b610f008582610e82565b865550610f68565b601f198416610f1686610cfc565b60005b82811015610f3e57848901518255600182019150602085019450602081019050610f19565b86831015610f5b5784890151610f57601f891682610e64565b8355505b6001600288020188555050505b505050505050565b7f4e487b7100000000000000000000000000000000000000000000000000000000600052601160045260246000fd5b6000610faa82610712565b9150610fb583610712565b9250828201905080821115610fcd57610fcc610f70565b5b92915050565b60006060820190508181036000830152610fed818661080d565b9050610ffc6020830185610852565b6110096040830184610861565b94935050505056fea2646970667358221220b89f97d43ce1c70b126869a4d9ffa4c0ecdb90dbf6087b0937f59b447b4ab8b564736f6c63430008140033",
  "linkReferences": {},
  "deployedLinkReferences": {}
}