{
  "_format": "hh3-artifact-1",
  "contractName": "BlizMarket",
  "sourceName": "contracts/BlizMarket.sol",
  "abi": [
    {
      "inputs": [
        {
          "internalType": "string",
          "name": "question",
          "type": "string"
        }
      ],
      "name": "createMarket",
      "outputs": [],
      "stateMutability": "nonpayable",
      "type": "function"
    },
    {
      "inputs": [],
      "name": "marketCount",
      "outputs": [
        {
          "internalType": "uint256",
          "name": "",
          "type": "uint256"
        }
      ],
      "stateMutability": "view",
      "type": "function"
    },
    {
      "inputs": [
        {
          "internalType": "uint256",
          "name": "",
          "type": "uint256"
        }
      ],
      "name": "markets",
      "outputs": [
        {
          "internalType": "uint256",
          "name": "id",
          "type": "uint256"
        },
        {
          "internalType": "string",
          "name": "question",
          "type": "string"
        },
        {
          "internalType": "uint256",
          "name": "yesPool",
          "type": "uint256"
        },
        {
          "internalType": "uint256",
          "name": "noPool",
          "type": "uint256"
        },
        {
          "internalType": "bool",
          "name": "resolved",
          "type": "bool"
        },
        {
          "internalType": "bool",
          "name": "outcome",
          "type": "bool"
        }
      ],
      "stateMutability": "view",
      "type": "function"
    }
  ],
  "bytecode": "0x6080604052348015600e575f5ffd5b506108cf8061001c5f395ff3fe608060405234801561000f575f5ffd5b506004361061003f575f3560e01c806354888f5514610043578063b1283e771461005f578063ec97908214610094575b5f5ffd5b61005d600480360381019061005891906103ac565b6100b2565b005b61007960048036038101906100749190610426565b610183565b60405161008b969594939291906104da565b60405180910390f35b61009c61025a565b6040516100a99190610540565b60405180910390f35b5f5f8154809291906100c390610586565b91905055506040518060c001604052805f5481526020018281526020015f81526020015f81526020015f151581526020015f151581525060015f5f5481526020019081526020015f205f820151815f0155602082015181600101908161012991906107ca565b5060408201518160020155606082015181600301556080820151816004015f6101000a81548160ff02191690831515021790555060a08201518160040160016101000a81548160ff02191690831515021790555090505050565b6001602052805f5260405f205f91509050805f0154908060010180546101a8906105fa565b80601f01602080910402602001604051908101604052809291908181526020018280546101d4906105fa565b801561021f5780601f106101f65761010080835404028352916020019161021f565b820191905f5260205f20905b81548152906001019060200180831161020257829003601f168201915b505050505090806002015490806003015490806004015f9054906101000a900460ff16908060040160019054906101000a900460ff16905086565b5f5481565b5f604051905090565b5f5ffd5b5f5ffd5b5f5ffd5b5f5ffd5b5f601f19601f8301169050919050565b7f4e487b71000000000000000000000000000000000000000000000000000000005f52604160045260245ffd5b6102be82610278565b810181811067ffffffffffffffff821117156102dd576102dc610288565b5b80604052505050565b5f6102ef61025f565b90506102fb82826102b5565b919050565b5f67ffffffffffffffff82111561031a57610319610288565b5b61032382610278565b9050602081019050919050565b828183375f83830152505050565b5f61035061034b84610300565b6102e6565b90508281526020810184848401111561036c5761036b610274565b5b610377848285610330565b509392505050565b5f82601f83011261039357610392610270565b5b81356103a384826020860161033e565b91505092915050565b5f602082840312156103c1576103c0610268565b5b5f82013567ffffffffffffffff8111156103de576103dd61026c565b5b6103ea8482850161037f565b91505092915050565b5f819050919050565b610405816103f3565b811461040f575f5ffd5b50565b5f81359050610420816103fc565b92915050565b5f6020828403121561043b5761043a610268565b5b5f61044884828501610412565b91505092915050565b61045a816103f3565b82525050565b5f81519050919050565b5f82825260208201905092915050565b8281835e5f83830152505050565b5f61049282610460565b61049c818561046a565b93506104ac81856020860161047a565b6104b581610278565b840191505092915050565b5f8115159050919050565b6104d4816104c0565b82525050565b5f60c0820190506104ed5f830189610451565b81810360208301526104ff8188610488565b905061050e6040830187610451565b61051b6060830186610451565b61052860808301856104cb565b61053560a08301846104cb565b979650505050505050565b5f6020820190506105535f830184610451565b92915050565b7f4e487b71000000000000000000000000000000000000000000000000000000005f52601160045260245ffd5b5f610590826103f3565b91507fffffffffffffffffffffffffffffffffffffffffffffffffffffffffffffffff82036105c2576105c1610559565b5b600182019050919050565b7f4e487b71000000000000000000000000000000000000000000000000000000005f52602260045260245ffd5b5f600282049050600182168061061157607f821691505b602082108103610624576106236105cd565b5b50919050565b5f819050815f5260205f209050919050565b5f6020601f8301049050919050565b5f82821b905092915050565b5f600883026106867fffffffffffffffffffffffffffffffffffffffffffffffffffffffffffffffff8261064b565b610690868361064b565b95508019841693508086168417925050509392505050565b5f819050919050565b5f6106cb6106c66106c1846103f3565b6106a8565b6103f3565b9050919050565b5f819050919050565b6106e4836106b1565b6106f86106f0826106d2565b848454610657565b825550505050565b5f5f905090565b61070f610700565b61071a8184846106db565b505050565b5b8181101561073d576107325f82610707565b600181019050610720565b5050565b601f821115610782576107538161062a565b61075c8461063c565b8101602085101561076b578190505b61077f6107778561063c565b83018261071f565b50505b505050565b5f82821c905092915050565b5f6107a25f1984600802610787565b1980831691505092915050565b5f6107ba8383610793565b9150826002028217905092915050565b6107d382610460565b67ffffffffffffffff8111156107ec576107eb610288565b5b6107f682546105fa565b610801828285610741565b5f60209050601f831160018114610832575f8415610820578287015190505b61082a85826107af565b865550610891565b601f1984166108408661062a565b5f5b8281101561086757848901518255600182019150602085019450602081019050610842565b868310156108845784890151610880601f891682610793565b8355505b6001600288020188555050505b50505050505056fea26469706673582212204b5fcba6bd749013e252883f6d8d728568269c3ad384291838cd94affbf028a264736f6c634300081c0033",
  "linkReferences": {},
  "deployedLinkReferences": {},
  "immutableReferences": {},
  "inputSourceName": "project/contracts/BlizMarket.sol",
  "buildInfoId": "solc-0_8_28-e5beff92f3a2166882003c916a1258e22112ca78"
}