{
  "_format": "hh-sol-artifact-1",
  "contractName": "BlizMarket",
  "sourceName": "contracts/BlizMarket.sol",
  "abi": [
    {
      "inputs": [
        {
          "internalType": "string",
          "name": "question",
          "type": "string"
        }
      ],
      "name": "createMarket",
      "outputs": [],
      "stateMutability": "nonpayable",
      "type": "function"
    },
    {
      "inputs": [],
      "name": "marketCount",
      "outputs": [
        {
          "internalType": "uint256",
          "name": "",
          "type": "uint256"
        }
      ],
      "stateMutability": "view",
      "type": "function"
    },
    {
      "inputs": [
        {
          "internalType": "uint256",
          "name": "",
          "type": "uint256"
        }
      ],
      "name": "markets",
      "outputs": [
        {
          "internalType": "uint256",
          "name": "id",
          "type": "uint256"
        },
        {
          "internalType": "string",
          "name": "question",
          "type": "string"
        },
        {
          "internalType": "uint256",
          "name": "yesPool",
          "type": "uint256"
        },
        {
          "internalType": "uint256",
          "name": "noPool",
          "type": "uint256"
        },
        {
          "internalType": "bool",
          "name": "resolved",
          "type": "bool"
        },
        {
          "internalType": "bool",
          "name": "outcome",
          "type": "bool"
        }
      ],
      "stateMutability": "view",
      "type": "function"
    }
  ],
  "bytecode": "0x608060405234801561001057600080fd5b50610932806100206000396000f3fe608060405234801561001057600080fd5b50600436106100415760003560e01c806354888f5514610046578063b1283e7714610062578063ec97908214610097575b600080fd5b610060600480360381019061005b91906103cf565b6100b5565b005b61007c6004803603810190610077919061044e565b610191565b60405161008e96959493929190610524565b60405180910390f35b61009f61026f565b6040516100ac919061058c565b60405180910390f35b6000808154809291906100c7906105d6565b91905055506040518060c0016040528060005481526020018281526020016000815260200160008152602001600015158152602001600015158152506001600080548152602001908152602001600020600082015181600001556020820151816001019081610136919061082a565b50604082015181600201556060820151816003015560808201518160040160006101000a81548160ff02191690831515021790555060a08201518160040160016101000a81548160ff02191690831515021790555090505050565b60016020528060005260406000206000915090508060000154908060010180546101ba9061064d565b80601f01602080910402602001604051908101604052809291908181526020018280546101e69061064d565b80156102335780601f1061020857610100808354040283529160200191610233565b820191906000526020600020905b81548152906001019060200180831161021657829003601f168201915b5050505050908060020154908060030154908060040160009054906101000a900460ff16908060040160019054906101000a900460ff16905086565b60005481565b6000604051905090565b600080fd5b600080fd5b600080fd5b600080fd5b6000601f19601f8301169050919050565b7f4e487b7100000000000000000000000000000000000000000000000000000000600052604160045260246000fd5b6102dc82610293565b810181811067ffffffffffffffff821117156102fb576102fa6102a4565b5b80604052505050565b600061030e610275565b905061031a82826102d3565b919050565b600067ffffffffffffffff82111561033a576103396102a4565b5b61034382610293565b9050602081019050919050565b82818337600083830152505050565b600061037261036d8461031f565b610304565b90508281526020810184848401111561038e5761038d61028e565b5b610399848285610350565b509392505050565b600082601f8301126103b6576103b5610289565b5b81356103c684826020860161035f565b91505092915050565b6000602082840312156103e5576103e461027f565b5b600082013567ffffffffffffffff81111561040357610402610284565b5b61040f848285016103a1565b91505092915050565b6000819050919050565b61042b81610418565b811461043657600080fd5b50565b60008135905061044881610422565b92915050565b6000602082840312156104645761046361027f565b5b600061047284828501610439565b91505092915050565b61048481610418565b82525050565b600081519050919050565b600082825260208201905092915050565b60005b838110156104c45780820151818401526020810190506104a9565b60008484015250505050565b60006104db8261048a565b6104e58185610495565b93506104f58185602086016104a6565b6104fe81610293565b840191505092915050565b60008115159050919050565b61051e81610509565b82525050565b600060c082019050610539600083018961047b565b818103602083015261054b81886104d0565b905061055a604083018761047b565b610567606083018661047b565b6105746080830185610515565b61058160a0830184610515565b979650505050505050565b60006020820190506105a1600083018461047b565b92915050565b7f4e487b7100000000000000000000000000000000000000000000000000000000600052601160045260246000fd5b60006105e182610418565b91507fffffffffffffffffffffffffffffffffffffffffffffffffffffffffffffffff8203610613576106126105a7565b5b600182019050919050565b7f4e487b7100000000000000000000000000000000000000000000000000000000600052602260045260246000fd5b6000600282049050600182168061066557607f821691505b6020821081036106785761067761061e565b5b50919050565b60008190508160005260206000209050919050565b60006020601f8301049050919050565b600082821b905092915050565b6000600883026106e07fffffffffffffffffffffffffffffffffffffffffffffffffffffffffffffffff826106a3565b6106ea86836106a3565b95508019841693508086168417925050509392505050565b6000819050919050565b600061072761072261071d84610418565b610702565b610418565b9050919050565b6000819050919050565b6107418361070c565b61075561074d8261072e565b8484546106b0565b825550505050565b600090565b61076a61075d565b610775818484610738565b505050565b5b818110156107995761078e600082610762565b60018101905061077b565b5050565b601f8211156107de576107af8161067e565b6107b884610693565b810160208510156107c7578190505b6107db6107d385610693565b83018261077a565b50505b505050565b600082821c905092915050565b6000610801600019846008026107e3565b1980831691505092915050565b600061081a83836107f0565b9150826002028217905092915050565b6108338261048a565b67ffffffffffffffff81111561084c5761084b6102a4565b5b610856825461064d565b61086182828561079d565b600060209050601f8311600181146108945760008415610882578287015190505b61088c858261080e565b8655506108f4565b601f1984166108a28661067e565b60005b828110156108ca578489015182556001820191506020850194506020810190506108a5565b868310156108e757848901516108e3601f8916826107f0565b8355505b6001600288020188555050505b50505050505056fea264697066735822122051feeba292bc57ee3e542fc1a6a22fdc57a2fcae884088ad5c4b73f3016d04d864736f6c63430008140033",
  "linkReferences": {},
  "deployedLinkReferences": {}
}