{
  "_format": "hh-sol-artifact-1",
  "contractName": "BlizPredictionMarketV2",
  "sourceName": "contracts/BlizPredictionMarketV2.sol",
  "abi": [
    {
      "inputs": [
        {
          "internalType": "address",
          "name": "_usdc",
          "type": "address"
        }
      ],
      "stateMutability": "nonpayable",
      "type": "constructor"
    },
    {
      "anonymous": false,
      "inputs": [
        {
          "indexed": true,
          "internalType": "uint256",
          "name": "tradeId",
          "type": "uint256"
        },
        {
          "indexed": true,
          "internalType": "address",
          "name": "trader",
          "type": "address"
        },
        {
          "indexed": false,
          "internalType": "string",
          "name": "symbol",
          "type": "string"
        },
        {
          "indexed": false,
          "internalType": "bool",
          "name": "isUp",
          "type": "bool"
        },
        {
          "indexed": false,
          "internalType": "uint256",
          "name": "amount",
          "type": "uint256"
        },
        {
          "indexed": false,
          "internalType": "uint256",
          "name": "entryPrice",
          "type": "uint256"
        },
        {
          "indexed": false,
          "internalType": "uint256",
          "name": "expiryTime",
          "type": "uint256"
        }
      ],
      "name": "PredictionPlaced",
      "type": "event"
    },
    {
      "anonymous": false,
      "inputs": [
        {
          "indexed": true,
          "internalType": "uint256",
          "name": "tradeId",
          "type": "uint256"
        },
        {
          "indexed": true,
          "internalType": "address",
          "name": "trader",
          "type": "address"
        },
        {
          "indexed": false,
          "internalType": "uint256",
          "name": "reward",
          "type": "uint256"
        }
      ],
      "name": "RewardClaimed",
      "type": "event"
    },
    {
      "anonymous": false,
      "inputs": [
        {
          "indexed": true,
          "internalType": "uint256",
          "name": "tradeId",
          "type": "uint256"
        },
        {
          "indexed": false,
          "internalType": "bool",
          "name": "won",
          "type": "bool"
        },
        {
          "indexed": false,
          "internalType": "uint256",
          "name": "finalPrice",
          "type": "uint256"
        }
      ],
      "name": "TradeSettled",
      "type": "event"
    },
    {
      "inputs": [],
      "name": "ODDS",
      "outputs": [
        {
          "internalType": "uint256",
          "name": "",
          "type": "uint256"
        }
      ],
      "stateMutability": "view",
      "type": "function"
    },
    {
      "inputs": [
        {
          "internalType": "uint256",
          "name": "tradeId",
          "type": "uint256"
        }
      ],
      "name": "claimReward",
      "outputs": [],
      "stateMutability": "nonpayable",
      "type": "function"
    },
    {
      "inputs": [
        {
          "internalType": "uint256",
          "name": "amount",
          "type": "uint256"
        }
      ],
      "name": "depositTreasury",
      "outputs": [],
      "stateMutability": "nonpayable",
      "type": "function"
    },
    {
      "inputs": [
        {
          "internalType": "uint256",
          "name": "index",
          "type": "uint256"
        }
      ],
      "name": "getTrade",
      "outputs": [
        {
          "internalType": "uint256",
          "name": "",
          "type": "uint256"
        },
        {
          "internalType": "address",
          "name": "",
          "type": "address"
        },
        {
          "internalType": "string",
          "name": "",
          "type": "string"
        },
        {
          "internalType": "bool",
          "name": "",
          "type": "bool"
        },
        {
          "internalType": "uint256",
          "name": "",
          "type": "uint256"
        },
        {
          "internalType": "uint256",
          "name": "",
          "type": "uint256"
        },
        {
          "internalType": "uint256",
          "name": "",
          "type": "uint256"
        },
        {
          "internalType": "bool",
          "name": "",
          "type": "bool"
        },
        {
          "internalType": "bool",
          "name": "",
          "type": "bool"
        },
        {
          "internalType": "bool",
          "name": "",
          "type": "bool"
        },
        {
          "internalType": "uint256",
          "name": "",
          "type": "uint256"
        }
      ],
      "stateMutability": "view",
      "type": "function"
    },
    {
      "inputs": [],
      "name": "getTradesCount",
      "outputs": [
        {
          "internalType": "uint256",
          "name": "",
          "type": "uint256"
        }
      ],
      "stateMutability": "view",
      "type": "function"
    },
    {
      "inputs": [],
      "name": "nextTradeId",
      "outputs": [
        {
          "internalType": "uint256",
          "name": "",
          "type": "uint256"
        }
      ],
      "stateMutability": "view",
      "type": "function"
    },
    {
      "inputs": [],
      "name": "owner",
      "outputs": [
        {
          "internalType": "address",
          "name": "",
          "type": "address"
        }
      ],
      "stateMutability": "view",
      "type": "function"
    },
    {
      "inputs": [
        {
          "internalType": "string",
          "name": "symbol",
          "type": "string"
        },
        {
          "internalType": "bool",
          "name": "isUp",
          "type": "bool"
        },
        {
          "internalType": "uint256",
          "name": "amount",
          "type": "uint256"
        },
        {
          "internalType": "uint256",
          "name": "entryPrice",
          "type": "uint256"
        },
        {
          "internalType": "uint256",
          "name": "duration",
          "type": "uint256"
        }
      ],
      "name": "placePrediction",
      "outputs": [],
      "stateMutability": "nonpayable",
      "type": "function"
    },
    {
      "inputs": [
        {
          "internalType": "uint256",
          "name": "tradeId",
          "type": "uint256"
        },
        {
          "internalType": "uint256",
          "name": "finalPrice",
          "type": "uint256"
        }
      ],
      "name": "settleTrade",
      "outputs": [],
      "stateMutability": "nonpayable",
      "type": "function"
    },
    {
      "inputs": [],
      "name": "totalVolume",
      "outputs": [
        {
          "internalType": "uint256",
          "name": "",
          "type": "uint256"
        }
      ],
      "stateMutability": "view",
      "type": "function"
    },
    {
      "inputs": [
        {
          "internalType": "uint256",
          "name": "",
          "type": "uint256"
        }
      ],
      "name": "trades",
      "outputs": [
        {
          "internalType": "uint256",
          "name": "id",
          "type": "uint256"
        },
        {
          "internalType": "address",
          "name": "trader",
          "type": "address"
        },
        {
          "internalType": "string",
          "name": "symbol",
          "type": "string"
        },
        {
          "internalType": "bool",
          "name": "isUp",
          "type": "bool"
        },
        {
          "internalType": "uint256",
          "name": "amount",
          "type": "uint256"
        },
        {
          "internalType": "uint256",
          "name": "entryPrice",
          "type": "uint256"
        },
        {
          "internalType": "uint256",
          "name": "expiryTime",
          "type": "uint256"
        },
        {
          "internalType": "bool",
          "name": "settled",
          "type": "bool"
        },
        {
          "internalType": "bool",
          "name": "won",
          "type": "bool"
        },
        {
          "internalType": "bool",
          "name": "claimed",
          "type": "bool"
        },
        {
          "internalType": "uint256",
          "name": "reward",
          "type": "uint256"
        }
      ],
      "stateMutability": "view",
      "type": "function"
    },
    {
      "inputs": [],
      "name": "usdc",
      "outputs": [
        {
          "internalType": "contract IERC20",
          "name": "",
          "type": "address"
        }
      ],
      "stateMutability": "view",
      "type": "function"
    },
    {
      "inputs": [
        {
          "internalType": "address",
          "name": "",
          "type": "address"
        }
      ],
      "name": "userLosses",
      "outputs": [
        {
          "internalType": "uint256",
          "name": "",
          "type": "uint256"
        }
      ],
      "stateMutability": "view",
      "type": "function"
    },
    {
      "inputs": [
        {
          "internalType": "address",
          "name": "",
          "type": "address"
        }
      ],
      "name": "userVolume",
      "outputs": [
        {
          "internalType": "uint256",
          "name": "",
          "type": "uint256"
        }
      ],
      "stateMutability": "view",
      "type": "function"
    },
    {
      "inputs": [
        {
          "internalType": "address",
          "name": "",
          "type": "address"
        }
      ],
      "name": "userWins",
      "outputs": [
        {
          "internalType": "uint256",
          "name": "",
          "type": "uint256"
        }
      ],
      "stateMutability": "view",
      "type": "function"
    },
    {
      "inputs": [
        {
          "internalType": "uint256",
          "name": "amount",
          "type": "uint256"
        }
      ],
      "name": "withdrawTreasury",
      "outputs": [],
      "stateMutability": "nonpayable",
      "type": "function"
    }
  ],
  "bytecode": "0x60806040523480156200001157600080fd5b506040516200287a3803806200287a833981810160405281019062000037919062000129565b806000806101000a81548173ffffffffffffffffffffffffffffffffffffffff021916908373ffffffffffffffffffffffffffffffffffffffff16021790555033600160006101000a81548173ffffffffffffffffffffffffffffffffffffffff021916908373ffffffffffffffffffffffffffffffffffffffff160217905550506200015b565b600080fd5b600073ffffffffffffffffffffffffffffffffffffffff82169050919050565b6000620000f182620000c4565b9050919050565b6200010381620000e4565b81146200010f57600080fd5b50565b6000815190506200012381620000f8565b92915050565b600060208284031215620001425762000141620000bf565b5b6000620001528482850162000112565b91505092915050565b61270f806200016b6000396000f3fe608060405234801561001057600080fd5b50600436106101005760003560e01c80638da5cb5b11610097578063bcf0407611610066578063bcf04076146102c3578063bd12240a146102e1578063d76516b4146102fd578063e040d9f31461031957610100565b80638da5cb5b1461023d578063976cc8261461025b578063a6769ef814610277578063ae169a50146102a757610100565b80633e413bee116100d35780633e413bee146101b35780635f81a57c146101d15780637651313a146101ef578063813ad0831461021f57610100565b806311f1fc99146101055780631e6c598e146101215780632db25e051461015b5780633aaa18a414610195575b600080fd5b61011f600480360381019061011a919061168b565b610349565b005b61013b6004803603810190610136919061168b565b6105bc565b6040516101529b9a999897969594939291906117b3565b60405180910390f35b6101756004803603810190610170919061168b565b610702565b60405161018c9b9a999897969594939291906117b3565b60405180910390f35b61019d61092b565b6040516101aa9190611865565b60405180910390f35b6101bb610938565b6040516101c891906118df565b60405180910390f35b6101d961095c565b6040516101e69190611865565b60405180910390f35b61020960048036038101906102049190611926565b610962565b6040516102169190611865565b60405180910390f35b61022761097a565b6040516102349190611865565b60405180910390f35b610245610980565b6040516102529190611953565b60405180910390f35b6102756004803603810190610270919061196e565b6109a6565b005b610291600480360381019061028c9190611926565b610c54565b60405161029e9190611865565b60405180910390f35b6102c160048036038101906102bc919061168b565b610c6c565b005b6102cb611056565b6040516102d89190611865565b60405180910390f35b6102fb60048036038101906102f6919061168b565b61105b565b005b61031760048036038101906103129190611b0f565b6111d2565b005b610333600480360381019061032e9190611926565b611629565b6040516103409190611865565b60405180910390f35b600160009054906101000a900473ffffffffffffffffffffffffffffffffffffffff1673ffffffffffffffffffffffffffffffffffffffff163373ffffffffffffffffffffffffffffffffffffffff16146103d9576040517f08c379a00000000000000000000000000000000000000000000000000000000081526004016103d090611bf2565b60405180910390fd5b6000811161041c576040517f08c379a000000000000000000000000000000000000000000000000000000000815260040161041390611c5e565b60405180910390fd5b8060008054906101000a900473ffffffffffffffffffffffffffffffffffffffff1673ffffffffffffffffffffffffffffffffffffffff166370a08231306040518263ffffffff1660e01b81526004016104769190611953565b602060405180830381865afa158015610493573d6000803e3d6000fd5b505050506040513d601f19601f820116820180604052508101906104b79190611c93565b10156104f8576040517f08c379a00000000000000000000000000000000000000000000000000000000081526004016104ef90611d0c565b60405180910390fd5b60008054906101000a900473ffffffffffffffffffffffffffffffffffffffff1673ffffffffffffffffffffffffffffffffffffffff1663a9059cbb600160009054906101000a900473ffffffffffffffffffffffffffffffffffffffff16836040518363ffffffff1660e01b8152600401610575929190611d2c565b6020604051808303816000875af1158015610594573d6000803e3d6000fd5b505050506040513d601f19601f820116820180604052508101906105b89190611d6a565b5050565b600481815481106105cc57600080fd5b90600052602060002090600902016000915090508060000154908060010160009054906101000a900473ffffffffffffffffffffffffffffffffffffffff169080600201805461061b90611dc6565b80601f016020809104026020016040519081016040528092919081815260200182805461064790611dc6565b80156106945780601f1061066957610100808354040283529160200191610694565b820191906000526020600020905b81548152906001019060200180831161067757829003601f168201915b5050505050908060030160009054906101000a900460ff16908060040154908060050154908060060154908060070160009054906101000a900460ff16908060070160019054906101000a900460ff16908060070160029054906101000a900460ff1690806008015490508b565b6000806060600080600080600080600080600060048d8154811061072957610728611df7565b5b906000526020600020906009020160405180610160016040529081600082015481526020016001820160009054906101000a900473ffffffffffffffffffffffffffffffffffffffff1673ffffffffffffffffffffffffffffffffffffffff1673ffffffffffffffffffffffffffffffffffffffff1681526020016002820180546107b390611dc6565b80601f01602080910402602001604051908101604052809291908181526020018280546107df90611dc6565b801561082c5780601f106108015761010080835404028352916020019161082c565b820191906000526020600020905b81548152906001019060200180831161080f57829003601f168201915b505050505081526020016003820160009054906101000a900460ff161515151581526020016004820154815260200160058201548152602001600682015481526020016007820160009054906101000a900460ff161515151581526020016007820160019054906101000a900460ff161515151581526020016007820160029054906101000a900460ff161515151581526020016008820154815250509050806000015181602001518260400151836060015184608001518560a001518660c001518760e001518861010001518961012001518a61014001519b509b509b509b509b509b509b509b509b509b509b505091939597999b90929496989a50565b6000600480549050905090565b60008054906101000a900473ffffffffffffffffffffffffffffffffffffffff1681565b60025481565b60066020528060005260406000206000915090505481565b60035481565b600160009054906101000a900473ffffffffffffffffffffffffffffffffffffffff1681565b60048054905082106109ed576040517f08c379a00000000000000000000000000000000000000000000000000000000081526004016109e490611e72565b60405180910390fd5b600060048381548110610a0357610a02611df7565b5b906000526020600020906009020190508060070160009054906101000a900460ff1615610a65576040517f08c379a0000000000000000000000000000000000000000000000000000000008152600401610a5c90611ede565b60405180910390fd5b8060060154421015610aac576040517f08c379a0000000000000000000000000000000000000000000000000000000008152600401610aa390611f4a565b60405180910390fd5b60008160030160009054906101000a900460ff1615610ad357816005015483119050610add565b8160050154831090505b60018260070160006101000a81548160ff021916908315150217905550808260070160016101000a81548160ff0219169083151502179055508015610b9a57600660008360010160009054906101000a900473ffffffffffffffffffffffffffffffffffffffff1673ffffffffffffffffffffffffffffffffffffffff1673ffffffffffffffffffffffffffffffffffffffff1681526020019081526020016000206000815480929190610b9090611f99565b9190505550610c14565b600760008360010160009054906101000a900473ffffffffffffffffffffffffffffffffffffffff1673ffffffffffffffffffffffffffffffffffffffff1673ffffffffffffffffffffffffffffffffffffffff1681526020019081526020016000206000815480929190610c0e90611f99565b91905055505b837fb2c35e442834e1d8c26f4de93e463988a16c9698486da0c5da071fa973fa60598285604051610c46929190611fe1565b60405180910390a250505050565b60056020528060005260406000206000915090505481565b6004805490508110610cb3576040517f08c379a0000000000000000000000000000000000000000000000000000000008152600401610caa90611e72565b60405180910390fd5b600060048281548110610cc957610cc8611df7565b5b906000526020600020906009020190503373ffffffffffffffffffffffffffffffffffffffff168160010160009054906101000a900473ffffffffffffffffffffffffffffffffffffffff1673ffffffffffffffffffffffffffffffffffffffff1614610d6b576040517f08c379a0000000000000000000000000000000000000000000000000000000008152600401610d6290612056565b60405180910390fd5b8060070160009054906101000a900460ff16610dbc576040517f08c379a0000000000000000000000000000000000000000000000000000000008152600401610db3906120c2565b60405180910390fd5b8060070160019054906101000a900460ff16610e0d576040517f08c379a0000000000000000000000000000000000000000000000000000000008152600401610e049061212e565b60405180910390fd5b8060070160029054906101000a900460ff1615610e5f576040517f08c379a0000000000000000000000000000000000000000000000000000000008152600401610e569061219a565b60405180910390fd5b806008015460008054906101000a900473ffffffffffffffffffffffffffffffffffffffff1673ffffffffffffffffffffffffffffffffffffffff166370a08231306040518263ffffffff1660e01b8152600401610ebd9190611953565b602060405180830381865afa158015610eda573d6000803e3d6000fd5b505050506040513d601f19601f82011682018060405250810190610efe9190611c93565b1015610f3f576040517f08c379a0000000000000000000000000000000000000000000000000000000008152600401610f3690612206565b60405180910390fd5b60018160070160026101000a81548160ff02191690831515021790555060008054906101000a900473ffffffffffffffffffffffffffffffffffffffff1673ffffffffffffffffffffffffffffffffffffffff1663a9059cbb3383600801546040518363ffffffff1660e01b8152600401610fbb929190611d2c565b6020604051808303816000875af1158015610fda573d6000803e3d6000fd5b505050506040513d601f19601f82011682018060405250810190610ffe9190611d6a565b503373ffffffffffffffffffffffffffffffffffffffff16827f24b5efa61dd1cfc659205a97fb8ed868f3cb8c81922bab2b96423e5de1de2cb7836008015460405161104a9190611865565b60405180910390a35050565b60b481565b600160009054906101000a900473ffffffffffffffffffffffffffffffffffffffff1673ffffffffffffffffffffffffffffffffffffffff163373ffffffffffffffffffffffffffffffffffffffff16146110eb576040517f08c379a00000000000000000000000000000000000000000000000000000000081526004016110e290611bf2565b60405180910390fd5b6000811161112e576040517f08c379a000000000000000000000000000000000000000000000000000000000815260040161112590611c5e565b60405180910390fd5b60008054906101000a900473ffffffffffffffffffffffffffffffffffffffff1673ffffffffffffffffffffffffffffffffffffffff166323b872dd3330846040518463ffffffff1660e01b815260040161118b93929190612226565b6020604051808303816000875af11580156111aa573d6000803e3d6000fd5b505050506040513d601f19601f820116820180604052508101906111ce9190611d6a565b5050565b60008311611215576040517f08c379a000000000000000000000000000000000000000000000000000000000815260040161120c90611c5e565b60405180910390fd5b60008211611258576040517f08c379a000000000000000000000000000000000000000000000000000000000815260040161124f906122a9565b60405180910390fd5b603c811480611268575061012c81145b80611274575061038481145b806112805750610e1081145b6112bf576040517f08c379a00000000000000000000000000000000000000000000000000000000081526004016112b690612315565b60405180910390fd5b60008054906101000a900473ffffffffffffffffffffffffffffffffffffffff1673ffffffffffffffffffffffffffffffffffffffff166323b872dd3330866040518463ffffffff1660e01b815260040161131c93929190612226565b6020604051808303816000875af115801561133b573d6000803e3d6000fd5b505050506040513d601f19601f8201168201806040525081019061135f9190611d6a565b506000606460b4856113719190612335565b61137b91906123a6565b9050600460405180610160016040528060035481526020013373ffffffffffffffffffffffffffffffffffffffff168152602001888152602001871515815260200186815260200185815260200184426113d591906123d7565b81526020016000151581526020016000151581526020016000151581526020018381525090806001815401808255809150506001900390600052602060002090600902016000909190919091506000820151816000015560208201518160010160006101000a81548173ffffffffffffffffffffffffffffffffffffffff021916908373ffffffffffffffffffffffffffffffffffffffff160217905550604082015181600201908161148891906125ad565b5060608201518160030160006101000a81548160ff0219169083151502179055506080820151816004015560a0820151816005015560c0820151816006015560e08201518160070160006101000a81548160ff0219169083151502179055506101008201518160070160016101000a81548160ff0219169083151502179055506101208201518160070160026101000a81548160ff02191690831515021790555061014082015181600801555050836002600082825461154891906123d7565b9250508190555083600560003373ffffffffffffffffffffffffffffffffffffffff1673ffffffffffffffffffffffffffffffffffffffff168152602001908152602001600020600082825461159e91906123d7565b925050819055503373ffffffffffffffffffffffffffffffffffffffff166003547f4c0e6fb543b09f98f3168c7bdb68f6cef31cead31bf7ab5adf40ad5ac42253ad8888888888426115f091906123d7565b60405161160195949392919061267f565b60405180910390a36003600081548092919061161c90611f99565b9190505550505050505050565b60076020528060005260406000206000915090505481565b6000604051905090565b600080fd5b600080fd5b6000819050919050565b61166881611655565b811461167357600080fd5b50565b6000813590506116858161165f565b92915050565b6000602082840312156116a1576116a061164b565b5b60006116af84828501611676565b91505092915050565b6116c181611655565b82525050565b600073ffffffffffffffffffffffffffffffffffffffff82169050919050565b60006116f2826116c7565b9050919050565b611702816116e7565b82525050565b600081519050919050565b600082825260208201905092915050565b60005b83811015611742578082015181840152602081019050611727565b60008484015250505050565b6000601f19601f8301169050919050565b600061176a82611708565b6117748185611713565b9350611784818560208601611724565b61178d8161174e565b840191505092915050565b60008115159050919050565b6117ad81611798565b82525050565b6000610160820190506117c9600083018e6116b8565b6117d6602083018d6116f9565b81810360408301526117e8818c61175f565b90506117f7606083018b6117a4565b611804608083018a6116b8565b61181160a08301896116b8565b61181e60c08301886116b8565b61182b60e08301876117a4565b6118396101008301866117a4565b6118476101208301856117a4565b6118556101408301846116b8565b9c9b505050505050505050505050565b600060208201905061187a60008301846116b8565b92915050565b6000819050919050565b60006118a56118a061189b846116c7565b611880565b6116c7565b9050919050565b60006118b78261188a565b9050919050565b60006118c9826118ac565b9050919050565b6118d9816118be565b82525050565b60006020820190506118f460008301846118d0565b92915050565b611903816116e7565b811461190e57600080fd5b50565b600081359050611920816118fa565b92915050565b60006020828403121561193c5761193b61164b565b5b600061194a84828501611911565b91505092915050565b600060208201905061196860008301846116f9565b92915050565b600080604083850312156119855761198461164b565b5b600061199385828601611676565b92505060206119a485828601611676565b9150509250929050565b600080fd5b600080fd5b7f4e487b7100000000000000000000000000000000000000000000000000000000600052604160045260246000fd5b6119f08261174e565b810181811067ffffffffffffffff82111715611a0f57611a0e6119b8565b5b80604052505050565b6000611a22611641565b9050611a2e82826119e7565b919050565b600067ffffffffffffffff821115611a4e57611a4d6119b8565b5b611a578261174e565b9050602081019050919050565b82818337600083830152505050565b6000611a86611a8184611a33565b611a18565b905082815260208101848484011115611aa257611aa16119b3565b5b611aad848285611a64565b509392505050565b600082601f830112611aca57611ac96119ae565b5b8135611ada848260208601611a73565b91505092915050565b611aec81611798565b8114611af757600080fd5b50565b600081359050611b0981611ae3565b92915050565b600080600080600060a08688031215611b2b57611b2a61164b565b5b600086013567ffffffffffffffff811115611b4957611b48611650565b5b611b5588828901611ab5565b9550506020611b6688828901611afa565b9450506040611b7788828901611676565b9350506060611b8888828901611676565b9250506080611b9988828901611676565b9150509295509295909350565b7f4e6f74206f776e65720000000000000000000000000000000000000000000000600082015250565b6000611bdc600983611713565b9150611be782611ba6565b602082019050919050565b60006020820190508181036000830152611c0b81611bcf565b9050919050565b7f496e76616c696420616d6f756e74000000000000000000000000000000000000600082015250565b6000611c48600e83611713565b9150611c5382611c12565b602082019050919050565b60006020820190508181036000830152611c7781611c3b565b9050919050565b600081519050611c8d8161165f565b92915050565b600060208284031215611ca957611ca861164b565b5b6000611cb784828501611c7e565b91505092915050565b7f496e73756666696369656e742074726561737572790000000000000000000000600082015250565b6000611cf6601583611713565b9150611d0182611cc0565b602082019050919050565b60006020820190508181036000830152611d2581611ce9565b9050919050565b6000604082019050611d4160008301856116f9565b611d4e60208301846116b8565b9392505050565b600081519050611d6481611ae3565b92915050565b600060208284031215611d8057611d7f61164b565b5b6000611d8e84828501611d55565b91505092915050565b7f4e487b7100000000000000000000000000000000000000000000000000000000600052602260045260246000fd5b60006002820490506001821680611dde57607f821691505b602082108103611df157611df0611d97565b5b50919050565b7f4e487b7100000000000000000000000000000000000000000000000000000000600052603260045260246000fd5b7f496e76616c696420747261646500000000000000000000000000000000000000600082015250565b6000611e5c600d83611713565b9150611e6782611e26565b602082019050919050565b60006020820190508181036000830152611e8b81611e4f565b9050919050565b7f416c726561647920736574746c65640000000000000000000000000000000000600082015250565b6000611ec8600f83611713565b9150611ed382611e92565b602082019050919050565b60006020820190508181036000830152611ef781611ebb565b9050919050565b7f4e6f742065787069726564000000000000000000000000000000000000000000600082015250565b6000611f34600b83611713565b9150611f3f82611efe565b602082019050919050565b60006020820190508181036000830152611f6381611f27565b9050919050565b7f4e487b7100000000000000000000000000000000000000000000000000000000600052601160045260246000fd5b6000611fa482611655565b91507fffffffffffffffffffffffffffffffffffffffffffffffffffffffffffffffff8203611fd657611fd5611f6a565b5b600182019050919050565b6000604082019050611ff660008301856117a4565b61200360208301846116b8565b9392505050565b7f4e6f742074726164657200000000000000000000000000000000000000000000600082015250565b6000612040600a83611713565b915061204b8261200a565b602082019050919050565b6000602082019050818103600083015261206f81612033565b9050919050565b7f4e6f7420736574746c6564000000000000000000000000000000000000000000600082015250565b60006120ac600b83611713565b91506120b782612076565b602082019050919050565b600060208201905081810360008301526120db8161209f565b9050919050565b7f5472616465206c6f737400000000000000000000000000000000000000000000600082015250565b6000612118600a83611713565b9150612123826120e2565b602082019050919050565b600060208201905081810360008301526121478161210b565b9050919050565b7f416c726561647920636c61696d65640000000000000000000000000000000000600082015250565b6000612184600f83611713565b915061218f8261214e565b602082019050919050565b600060208201905081810360008301526121b381612177565b9050919050565b7f547265617375727920656d707479000000000000000000000000000000000000600082015250565b60006121f0600e83611713565b91506121fb826121ba565b602082019050919050565b6000602082019050818103600083015261221f816121e3565b9050919050565b600060608201905061223b60008301866116f9565b61224860208301856116f9565b61225560408301846116b8565b949350505050565b7f496e76616c696420707269636500000000000000000000000000000000000000600082015250565b6000612293600d83611713565b915061229e8261225d565b602082019050919050565b600060208201905081810360008301526122c281612286565b9050919050565b7f496e76616c6964206475726174696f6e00000000000000000000000000000000600082015250565b60006122ff601083611713565b915061230a826122c9565b602082019050919050565b6000602082019050818103600083015261232e816122f2565b9050919050565b600061234082611655565b915061234b83611655565b925082820261235981611655565b915082820484148315176123705761236f611f6a565b5b5092915050565b7f4e487b7100000000000000000000000000000000000000000000000000000000600052601260045260246000fd5b60006123b182611655565b91506123bc83611655565b9250826123cc576123cb612377565b5b828204905092915050565b60006123e282611655565b91506123ed83611655565b925082820190508082111561240557612404611f6a565b5b92915050565b60008190508160005260206000209050919050565b60006020601f8301049050919050565b600082821b905092915050565b60006008830261246d7fffffffffffffffffffffffffffffffffffffffffffffffffffffffffffffffff82612430565b6124778683612430565b95508019841693508086168417925050509392505050565b60006124aa6124a56124a084611655565b611880565b611655565b9050919050565b6000819050919050565b6124c48361248f565b6124d86124d0826124b1565b84845461243d565b825550505050565b600090565b6124ed6124e0565b6124f88184846124bb565b505050565b5b8181101561251c576125116000826124e5565b6001810190506124fe565b5050565b601f821115612561576125328161240b565b61253b84612420565b8101602085101561254a578190505b61255e61255685612420565b8301826124fd565b50505b505050565b600082821c905092915050565b600061258460001984600802612566565b1980831691505092915050565b600061259d8383612573565b9150826002028217905092915050565b6125b682611708565b67ffffffffffffffff8111156125cf576125ce6119b8565b5b6125d98254611dc6565b6125e4828285612520565b600060209050601f8311600181146126175760008415612605578287015190505b61260f8582612591565b865550612677565b601f1984166126258661240b565b60005b8281101561264d57848901518255600182019150602085019450602081019050612628565b8683101561266a5784890151612666601f891682612573565b8355505b6001600288020188555050505b505050505050565b600060a0820190508181036000830152612699818861175f565b90506126a860208301876117a4565b6126b560408301866116b8565b6126c260608301856116b8565b6126cf60808301846116b8565b969550505050505056fea2646970667358221220a5e739f19b948d54aa7f8469e783ad1f4cf9934c6558b2b55102dfc440efdf7264736f6c63430008140033",
  "linkReferences": {},
  "deployedLinkReferences": {}
}